{
  "address": "0x647ac73368014af93c58572D2715edCf77DaE384",
  "abi": [
    {
      "inputs": [],
      "stateMutability": "nonpayable",
      "type": "constructor"
    },
    {
      "inputs": [],
      "name": "AntibotCooldown",
      "type": "error"
    },
    {
      "inputs": [
        {
          "internalType": "address",
          "name": "spender",
          "type": "address"
        },
        {
          "internalType": "uint256",
          "name": "allowance",
          "type": "uint256"
        },
        {
          "internalType": "uint256",
          "name": "needed",
          "type": "uint256"
        }
      ],
      "name": "ERC20InsufficientAllowance",
      "type": "error"
    },
    {
      "inputs": [
        {
          "internalType": "address",
          "name": "sender",
          "type": "address"
        },
        {
          "internalType": "uint256",
          "name": "balance",
          "type": "uint256"
        },
        {
          "internalType": "uint256",
          "name": "needed",
          "type": "uint256"
        }
      ],
      "name": "ERC20InsufficientBalance",
      "type": "error"
    },
    {
      "inputs": [
        {
          "internalType": "address",
          "name": "approver",
          "type": "address"
        }
      ],
      "name": "ERC20InvalidApprover",
      "type": "error"
    },
    {
      "inputs": [
        {
          "internalType": "address",
          "name": "receiver",
          "type": "address"
        }
      ],
      "name": "ERC20InvalidReceiver",
      "type": "error"
    },
    {
      "inputs": [
        {
          "internalType": "address",
          "name": "sender",
          "type": "address"
        }
      ],
      "name": "ERC20InvalidSender",
      "type": "error"
    },
    {
      "inputs": [
        {
          "internalType": "address",
          "name": "spender",
          "type": "address"
        }
      ],
      "name": "ERC20InvalidSpender",
      "type": "error"
    },
    {
      "inputs": [],
      "name": "ExceedsMaxTransferAmount",
      "type": "error"
    },
    {
      "inputs": [],
      "name": "MintDisabled",
      "type": "error"
    },
    {
      "inputs": [
        {
          "internalType": "address",
          "name": "owner",
          "type": "address"
        }
      ],
      "name": "OwnableInvalidOwner",
      "type": "error"
    },
    {
      "inputs": [
        {
          "internalType": "address",
          "name": "account",
          "type": "address"
        }
      ],
      "name": "OwnableUnauthorizedAccount",
      "type": "error"
    },
    {
      "inputs": [],
      "name": "ZeroAddress",
      "type": "error"
    },
    {
      "anonymous": false,
      "inputs": [
        {
          "indexed": true,
          "internalType": "address",
          "name": "owner",
          "type": "address"
        },
        {
          "indexed": true,
          "internalType": "address",
          "name": "spender",
          "type": "address"
        },
        {
          "indexed": false,
          "internalType": "uint256",
          "name": "value",
          "type": "uint256"
        }
      ],
      "name": "Approval",
      "type": "event"
    },
    {
      "anonymous": false,
      "inputs": [
        {
          "indexed": false,
          "internalType": "address",
          "name": "account",
          "type": "address"
        },
        {
          "indexed": false,
          "internalType": "bool",
          "name": "add",
          "type": "bool"
        }
      ],
      "name": "FeeFreeListUpdated",
      "type": "event"
    },
    {
      "anonymous": false,
      "inputs": [
        {
          "indexed": true,
          "internalType": "address",
          "name": "previousOwner",
          "type": "address"
        },
        {
          "indexed": true,
          "internalType": "address",
          "name": "newOwner",
          "type": "address"
        }
      ],
      "name": "OwnershipTransferStarted",
      "type": "event"
    },
    {
      "anonymous": false,
      "inputs": [
        {
          "indexed": true,
          "internalType": "address",
          "name": "previousOwner",
          "type": "address"
        },
        {
          "indexed": true,
          "internalType": "address",
          "name": "newOwner",
          "type": "address"
        }
      ],
      "name": "OwnershipTransferred",
      "type": "event"
    },
    {
      "anonymous": false,
      "inputs": [
        {
          "indexed": false,
          "internalType": "address",
          "name": "pool",
          "type": "address"
        },
        {
          "indexed": false,
          "internalType": "bool",
          "name": "add",
          "type": "bool"
        }
      ],
      "name": "PoolWithFeeListUpdated",
      "type": "event"
    },
    {
      "anonymous": false,
      "inputs": [
        {
          "indexed": true,
          "internalType": "address",
          "name": "from",
          "type": "address"
        },
        {
          "indexed": true,
          "internalType": "address",
          "name": "to",
          "type": "address"
        },
        {
          "indexed": false,
          "internalType": "uint256",
          "name": "value",
          "type": "uint256"
        }
      ],
      "name": "Transfer",
      "type": "event"
    },
    {
      "inputs": [],
      "name": "INITIAL_SUPPLY",
      "outputs": [
        {
          "internalType": "uint256",
          "name": "",
          "type": "uint256"
        }
      ],
      "stateMutability": "view",
      "type": "function"
    },
    {
      "inputs": [],
      "name": "PCT_DIV",
      "outputs": [
        {
          "internalType": "uint256",
          "name": "",
          "type": "uint256"
        }
      ],
      "stateMutability": "view",
      "type": "function"
    },
    {
      "inputs": [],
      "name": "acceptOwnership",
      "outputs": [],
      "stateMutability": "nonpayable",
      "type": "function"
    },
    {
      "inputs": [],
      "name": "acquisitionWallet",
      "outputs": [
        {
          "internalType": "address",
          "name": "",
          "type": "address"
        }
      ],
      "stateMutability": "view",
      "type": "function"
    },
    {
      "inputs": [
        {
          "internalType": "address",
          "name": "owner",
          "type": "address"
        },
        {
          "internalType": "address",
          "name": "spender",
          "type": "address"
        }
      ],
      "name": "allowance",
      "outputs": [
        {
          "internalType": "uint256",
          "name": "",
          "type": "uint256"
        }
      ],
      "stateMutability": "view",
      "type": "function"
    },
    {
      "inputs": [],
      "name": "antiBotCooldown",
      "outputs": [
        {
          "internalType": "uint256",
          "name": "",
          "type": "uint256"
        }
      ],
      "stateMutability": "view",
      "type": "function"
    },
    {
      "inputs": [
        {
          "internalType": "address",
          "name": "spender",
          "type": "address"
        },
        {
          "internalType": "uint256",
          "name": "value",
          "type": "uint256"
        }
      ],
      "name": "approve",
      "outputs": [
        {
          "internalType": "bool",
          "name": "",
          "type": "bool"
        }
      ],
      "stateMutability": "nonpayable",
      "type": "function"
    },
    {
      "inputs": [
        {
          "internalType": "address",
          "name": "account",
          "type": "address"
        }
      ],
      "name": "balanceOf",
      "outputs": [
        {
          "internalType": "uint256",
          "name": "",
          "type": "uint256"
        }
      ],
      "stateMutability": "view",
      "type": "function"
    },
    {
      "inputs": [],
      "name": "communityWallet",
      "outputs": [
        {
          "internalType": "address",
          "name": "",
          "type": "address"
        }
      ],
      "stateMutability": "view",
      "type": "function"
    },
    {
      "inputs": [],
      "name": "debtManagementWallet",
      "outputs": [
        {
          "internalType": "address",
          "name": "",
          "type": "address"
        }
      ],
      "stateMutability": "view",
      "type": "function"
    },
    {
      "inputs": [],
      "name": "decimals",
      "outputs": [
        {
          "internalType": "uint8",
          "name": "",
          "type": "uint8"
        }
      ],
      "stateMutability": "view",
      "type": "function"
    },
    {
      "inputs": [],
      "name": "developmentWallet",
      "outputs": [
        {
          "internalType": "address",
          "name": "",
          "type": "address"
        }
      ],
      "stateMutability": "view",
      "type": "function"
    },
    {
      "inputs": [],
      "name": "getFee",
      "outputs": [
        {
          "internalType": "uint256",
          "name": "",
          "type": "uint256"
        }
      ],
      "stateMutability": "view",
      "type": "function"
    },
    {
      "inputs": [
        {
          "internalType": "address",
          "name": "",
          "type": "address"
        }
      ],
      "name": "isFeeFree",
      "outputs": [
        {
          "internalType": "bool",
          "name": "",
          "type": "bool"
        }
      ],
      "stateMutability": "view",
      "type": "function"
    },
    {
      "inputs": [],
      "name": "isMintDisabled",
      "outputs": [
        {
          "internalType": "bool",
          "name": "",
          "type": "bool"
        }
      ],
      "stateMutability": "view",
      "type": "function"
    },
    {
      "inputs": [
        {
          "internalType": "address",
          "name": "",
          "type": "address"
        }
      ],
      "name": "isPoolWithFee",
      "outputs": [
        {
          "internalType": "bool",
          "name": "",
          "type": "bool"
        }
      ],
      "stateMutability": "view",
      "type": "function"
    },
    {
      "inputs": [],
      "name": "liquidityWallet",
      "outputs": [
        {
          "internalType": "address",
          "name": "",
          "type": "address"
        }
      ],
      "stateMutability": "view",
      "type": "function"
    },
    {
      "inputs": [],
      "name": "marketingWallet",
      "outputs": [
        {
          "internalType": "address",
          "name": "",
          "type": "address"
        }
      ],
      "stateMutability": "view",
      "type": "function"
    },
    {
      "inputs": [],
      "name": "name",
      "outputs": [
        {
          "internalType": "string",
          "name": "",
          "type": "string"
        }
      ],
      "stateMutability": "view",
      "type": "function"
    },
    {
      "inputs": [],
      "name": "owner",
      "outputs": [
        {
          "internalType": "address",
          "name": "",
          "type": "address"
        }
      ],
      "stateMutability": "view",
      "type": "function"
    },
    {
      "inputs": [],
      "name": "pendingOwner",
      "outputs": [
        {
          "internalType": "address",
          "name": "",
          "type": "address"
        }
      ],
      "stateMutability": "view",
      "type": "function"
    },
    {
      "inputs": [],
      "name": "removeTransferRestrictionTime",
      "outputs": [
        {
          "internalType": "uint256",
          "name": "",
          "type": "uint256"
        }
      ],
      "stateMutability": "view",
      "type": "function"
    },
    {
      "inputs": [],
      "name": "renounceOwnership",
      "outputs": [],
      "stateMutability": "nonpayable",
      "type": "function"
    },
    {
      "inputs": [],
      "name": "reserveWallet",
      "outputs": [
        {
          "internalType": "address",
          "name": "",
          "type": "address"
        }
      ],
      "stateMutability": "view",
      "type": "function"
    },
    {
      "inputs": [
        {
          "internalType": "address",
          "name": "account",
          "type": "address"
        },
        {
          "internalType": "bool",
          "name": "add",
          "type": "bool"
        }
      ],
      "name": "setFeeFreeList",
      "outputs": [],
      "stateMutability": "nonpayable",
      "type": "function"
    },
    {
      "inputs": [
        {
          "internalType": "address",
          "name": "pool",
          "type": "address"
        },
        {
          "internalType": "bool",
          "name": "add",
          "type": "bool"
        }
      ],
      "name": "setPoolWithFeeList",
      "outputs": [],
      "stateMutability": "nonpayable",
      "type": "function"
    },
    {
      "inputs": [],
      "name": "swapFeeChangeTime",
      "outputs": [
        {
          "internalType": "uint256",
          "name": "",
          "type": "uint256"
        }
      ],
      "stateMutability": "view",
      "type": "function"
    },
    {
      "inputs": [],
      "name": "symbol",
      "outputs": [
        {
          "internalType": "string",
          "name": "",
          "type": "string"
        }
      ],
      "stateMutability": "view",
      "type": "function"
    },
    {
      "inputs": [],
      "name": "teamWallet",
      "outputs": [
        {
          "internalType": "address",
          "name": "",
          "type": "address"
        }
      ],
      "stateMutability": "view",
      "type": "function"
    },
    {
      "inputs": [],
      "name": "totalSupply",
      "outputs": [
        {
          "internalType": "uint256",
          "name": "",
          "type": "uint256"
        }
      ],
      "stateMutability": "view",
      "type": "function"
    },
    {
      "inputs": [
        {
          "internalType": "address",
          "name": "to",
          "type": "address"
        },
        {
          "internalType": "uint256",
          "name": "amount",
          "type": "uint256"
        }
      ],
      "name": "transfer",
      "outputs": [
        {
          "internalType": "bool",
          "name": "",
          "type": "bool"
        }
      ],
      "stateMutability": "nonpayable",
      "type": "function"
    },
    {
      "inputs": [
        {
          "internalType": "address",
          "name": "from",
          "type": "address"
        },
        {
          "internalType": "address",
          "name": "to",
          "type": "address"
        },
        {
          "internalType": "uint256",
          "name": "amount",
          "type": "uint256"
        }
      ],
      "name": "transferFrom",
      "outputs": [
        {
          "internalType": "bool",
          "name": "",
          "type": "bool"
        }
      ],
      "stateMutability": "nonpayable",
      "type": "function"
    },
    {
      "inputs": [
        {
          "internalType": "address",
          "name": "newOwner",
          "type": "address"
        }
      ],
      "name": "transferOwnership",
      "outputs": [],
      "stateMutability": "nonpayable",
      "type": "function"
    }
  ],
  "transactionHash": "0x9366d7899ea95175aa43d0eaf16b8e06642777ca4590c68b81c0025777a50251",
  "args": [],
  "numDeployments": 1,
  "solcInputHash": "7f0629ae57c7fb2be191014aeed5454a",
  "bytecode": "0x60e060405234801561001057600080fd5b50336040518060400160405280600a81526020016921b4b732ac2a37b5b2b760b11b81525060405180604001604052806005815260200164086d2dccab60db1b815250816003908161006291906105fb565b50600461006f82826105fb565b5050506001600160a01b0381166100a157604051631e4fbdf760e01b8152600060048201526024015b60405180910390fd5b6100aa816102b7565b506100c1306b033b2e3c9fd0803ce80000006102d3565b600160c05261010730732c0e66a4fe460ea18d0887b7849fe0395c15f9d360646100f86b033b2e3c9fd0803ce8000000600f6106cf565b61010291906106ec565b61030d565b610139307358c498f8efbc7cc1c7299fe7c94f0a0836bb103460646100f86b033b2e3c9fd0803ce8000000601b6106cf565b61016b30731331b032029e0a38bfe56d287b4befe64d04d0c660646100f86b033b2e3c9fd0803ce800000060176106cf565b61019d30738b8702a4266f80f270b45c8775f0335c042e48bf60646100f86b033b2e3c9fd0803ce800000060056106cf565b6101cf30739ad19b438c19cb3d32c23a4b9010f432d3fc94e360646100f86b033b2e3c9fd0803ce800000060056106cf565b610201307380657b98772cb75ddecef1bb92647fdca3e1a0a160646100f86b033b2e3c9fd0803ce800000060056106cf565b610233307394baa3a22778dfabec37cc379e51b43a255d9c5e60646100f86b033b2e3c9fd0803ce800000060056106cf565b6102653073e813b4588c93b0da5146314c179b67e6c769089460646100f86b033b2e3c9fd0803ce800000060056106cf565b6102913060646102826b033b2e3c9fd0803ce8000000600a6106cf565b61028c91906106ec565b610371565b61029f426301e1338061070e565b6080526102af42624f1a0061070e565b60a052610721565b600680546001600160a01b03191690556102d0816103a7565b50565b6001600160a01b0382166102fd5760405163ec442f0560e01b815260006004820152602401610098565b610309600083836103f9565b5050565b6001600160a01b03831661033757604051634b637e8f60e11b815260006004820152602401610098565b6001600160a01b0382166103615760405163ec442f0560e01b815260006004820152602401610098565b61036c8383836103f9565b505050565b6001600160a01b03821661039b57604051634b637e8f60e11b815260006004820152602401610098565b610309826000836103f9565b600580546001600160a01b038381166001600160a01b0319831681179093556040519116919082907f8be0079c531659141344cd1fd0a4f28419497f9722a3daafe3b4186f6b6457e090600090a35050565b6001600160a01b03831615801561040f575060c0515b1561042d576040516317efbd6b60e01b815260040160405180910390fd5b61036c8383836001600160a01b03831661045e578060026000828254610453919061070e565b909155506104d09050565b6001600160a01b038316600090815260208190526040902054818110156104b15760405163391434e360e21b81526001600160a01b03851660048201526024810182905260448101839052606401610098565b6001600160a01b03841660009081526020819052604090209082900390555b6001600160a01b0382166104ec5760028054829003905561050b565b6001600160a01b03821660009081526020819052604090208054820190555b816001600160a01b0316836001600160a01b03167fddf252ad1be2c89b69c2b068fc378daa952ba7f163c4a11628f55a4df523b3ef8360405161055091815260200190565b60405180910390a3505050565b634e487b7160e01b600052604160045260246000fd5b600181811c9082168061058757607f821691505b6020821081036105a757634e487b7160e01b600052602260045260246000fd5b50919050565b601f82111561036c57806000526020600020601f840160051c810160208510156105d45750805b601f840160051c820191505b818110156105f457600081556001016105e0565b5050505050565b81516001600160401b038111156106145761061461055d565b610628816106228454610573565b846105ad565b6020601f82116001811461065c57600083156106445750848201515b600019600385901b1c1916600184901b1784556105f4565b600084815260208120601f198516915b8281101561068c578785015182556020948501946001909201910161066c565b50848210156106aa5786840151600019600387901b60f8161c191681555b50505050600190811b01905550565b634e487b7160e01b600052601160045260246000fd5b80820281158282048414176106e6576106e66106b9565b92915050565b60008261070957634e487b7160e01b600052601260045260246000fd5b500490565b808201808211156106e6576106e66106b9565b60805160a05160c0516110ce610773600039600081816104190152610cc201526000818161045b015281816105e301526106be0152600081816103cc015281816109370152610a9c01526110ce6000f3fe608060405234801561001057600080fd5b50600436106101fb5760003560e01c806381b012341161011a578063c04a5414116100ad578063d46980161161007c578063d4698016146104a0578063d72b11bd146104bb578063dd62ed3e146104d6578063e30c39781461050f578063f2fde38b1461052057600080fd5b8063c04a54141461043b578063c120599414610456578063c75748391461047d578063ced72f871461049857600080fd5b8063a246335c116100e9578063a246335c146103c7578063a9059cbb146103ee578063acf09acf14610401578063b5ab43851461041457600080fd5b806381b01234146103705780638da5cb5b1461038b57806395d89b411461039c5780639e36eda6146103a457600080fd5b8063313ce5671161019257806370a082311161016157806370a082311461031c578063715018a61461034557806375f0a8741461034d57806379ba50971461036857600080fd5b8063313ce567146102e057806355d36312146102ef57806359927044146102f75780635b32085a1461031257600080fd5b806323b872dd116101ce57806323b872dd1461027257806325771517146102855780632ff2e9dc146102b8578063306d61a0146102cb57600080fd5b80630588c29f1461020057806306fdde0314610238578063095ea7b31461024d57806318160ddd14610260575b600080fd5b61022361020e366004610ea3565b60076020526000908152604090205460ff1681565b60405190151581526020015b60405180910390f35b610240610533565b60405161022f9190610ec5565b61022361025b366004610f13565b6105c5565b6002545b60405190815260200161022f565b610223610280366004610f3d565b6105df565b6102a07358c498f8efbc7cc1c7299fe7c94f0a0836bb103481565b6040516001600160a01b03909116815260200161022f565b6102646b033b2e3c9fd0803ce800000081565b6102de6102d9366004610f7a565b610793565b005b6040516012815260200161022f565b610264601e81565b6102a073e813b4588c93b0da5146314c179b67e6c769089481565b610264620186a081565b61026461032a366004610ea3565b6001600160a01b031660009081526020819052604090205490565b6102de610826565b6102a07394baa3a22778dfabec37cc379e51b43a255d9c5e81565b6102de61083a565b6102a0731331b032029e0a38bfe56d287b4befe64d04d0c681565b6005546001600160a01b03166102a0565b610240610883565b6102236103b2366004610ea3565b60086020526000908152604090205460ff1681565b6102647f000000000000000000000000000000000000000000000000000000000000000081565b6102236103fc366004610f13565b610892565b6102de61040f366004610f7a565b6108a8565b6102237f000000000000000000000000000000000000000000000000000000000000000081565b6102a0738b8702a4266f80f270b45c8775f0335c042e48bf81565b6102647f000000000000000000000000000000000000000000000000000000000000000081565b6102a0739ad19b438c19cb3d32c23a4b9010f432d3fc94e381565b610264610933565b6102a0732c0e66a4fe460ea18d0887b7849fe0395c15f9d381565b6102a07380657b98772cb75ddecef1bb92647fdca3e1a0a181565b6102646104e4366004610fb6565b6001600160a01b03918216600090815260016020908152604080832093909416825291909152205490565b6006546001600160a01b03166102a0565b6102de61052e366004610ea3565b610972565b60606003805461054290610fe9565b80601f016020809104026020016040519081016040528092919081815260200182805461056e90610fe9565b80156105bb5780601f10610590576101008083540402835291602001916105bb565b820191906000526020600020905b81548152906001019060200180831161059e57829003601f168201915b5050505050905090565b6000336105d38185856109e3565b60019150505b92915050565b60007f000000000000000000000000000000000000000000000000000000000000000042108015610625575061062260646b033b2e3c9fd0803ce8000000611039565b82115b1561064357604051634633498d60e01b815260040160405180910390fd5b336001600160a01b038516811461065f5761065f8582856109f5565b6001600160a01b038516600090815260076020526040812054819060ff16156106895750846106ad565b6001600160a01b03861660009081526007602052604090205460ff16156106ad5750855b6001600160a01b03811615610772577f0000000000000000000000000000000000000000000000000000000000000000421015610745576001600160a01b03811660009081526009602052604090205461070990601e9061105b565b4210156107295760405163406b3e1760e01b815260040160405180910390fd5b6001600160a01b03811660009081526009602052604090204290555b6001600160a01b03811660009081526008602052604090205460ff166107725761076f8786610a74565b91505b6107868787610781858961106e565b610b34565b5060019695505050505050565b61079b610b93565b6001600160a01b0382166107c25760405163d92e233d60e01b815260040160405180910390fd5b6001600160a01b038216600081815260086020908152604091829020805460ff19168515159081179091558251938452908301527f96e17ca77d771534007d221a974f505f628eb25139a8367689bc7e7b0af31e7791015b60405180910390a15050565b61082e610b93565b6108386000610bc0565b565b60065433906001600160a01b031681146108775760405163118cdaa760e01b81526001600160a01b03821660048201526024015b60405180910390fd5b61088081610bc0565b50565b60606004805461054290610fe9565b6000336108a08185856105df565b949350505050565b6108b0610b93565b6001600160a01b0382166108d75760405163d92e233d60e01b815260040160405180910390fd5b6001600160a01b038216600081815260076020908152604091829020805460ff19168515159081179091558251938452908301527ffbdca2f76692dbc2967688890bd155eaf70ee30813781c1cb9495e80c7f0d75a910161081a565b60007f000000000000000000000000000000000000000000000000000000000000000042101561096557611770610969565b6107d05b61ffff16905090565b61097a610b93565b600680546001600160a01b0383166001600160a01b031990911681179091556109ab6005546001600160a01b031690565b6001600160a01b03167f38d16b8cac22d99fc7c124b9cd0de2d3fa1faef420bfe791d8c362d765e2270060405160405180910390a350565b6109f08383836001610bd9565b505050565b6001600160a01b03838116600090815260016020908152604080832093861683529290522054600019811015610a6e5781811015610a5f57604051637dc7a0d960e11b81526001600160a01b0384166004820152602481018290526044810183905260640161086e565b610a6e84848484036000610bd9565b50505050565b6000620186a0610a82610933565b610a8c9084611081565b610a969190611039565b905060007f0000000000000000000000000000000000000000000000000000000000000000421015610ade576003610acf836002611081565b610ad99190611039565b610ae9565b610ae9600283611039565b9050610b0a84732c0e66a4fe460ea18d0887b7849fe0395c15f9d383610b34565b610b2d84738b8702a4266f80f270b45c8775f0335c042e48bf610781848661106e565b5092915050565b6001600160a01b038316610b5e57604051634b637e8f60e11b81526000600482015260240161086e565b6001600160a01b038216610b885760405163ec442f0560e01b81526000600482015260240161086e565b6109f0838383610cae565b6005546001600160a01b031633146108385760405163118cdaa760e01b815233600482015260240161086e565b600680546001600160a01b031916905561088081610d0b565b6001600160a01b038416610c035760405163e602df0560e01b81526000600482015260240161086e565b6001600160a01b038316610c2d57604051634a1406b160e11b81526000600482015260240161086e565b6001600160a01b0380851660009081526001602090815260408083209387168352929052208290558015610a6e57826001600160a01b0316846001600160a01b03167f8c5be1e5ebec7d5bd14f71427d1e84f3dd0314c0f7b2291e5b200ac8c7c3b92584604051610ca091815260200190565b60405180910390a350505050565b6001600160a01b038316158015610ce257507f00000000000000000000000000000000000000000000000000000000000000005b15610d00576040516317efbd6b60e01b815260040160405180910390fd5b6109f0838383610d5d565b600580546001600160a01b038381166001600160a01b0319831681179093556040519116919082907f8be0079c531659141344cd1fd0a4f28419497f9722a3daafe3b4186f6b6457e090600090a35050565b6001600160a01b038316610d88578060026000828254610d7d919061105b565b90915550610dfa9050565b6001600160a01b03831660009081526020819052604090205481811015610ddb5760405163391434e360e21b81526001600160a01b0385166004820152602481018290526044810183905260640161086e565b6001600160a01b03841660009081526020819052604090209082900390555b6001600160a01b038216610e1657600280548290039055610e35565b6001600160a01b03821660009081526020819052604090208054820190555b816001600160a01b0316836001600160a01b03167fddf252ad1be2c89b69c2b068fc378daa952ba7f163c4a11628f55a4df523b3ef83604051610e7a91815260200190565b60405180910390a3505050565b80356001600160a01b0381168114610e9e57600080fd5b919050565b600060208284031215610eb557600080fd5b610ebe82610e87565b9392505050565b602081526000825180602084015260005b81811015610ef35760208186018101516040868401015201610ed6565b506000604082850101526040601f19601f83011684010191505092915050565b60008060408385031215610f2657600080fd5b610f2f83610e87565b946020939093013593505050565b600080600060608486031215610f5257600080fd5b610f5b84610e87565b9250610f6960208501610e87565b929592945050506040919091013590565b60008060408385031215610f8d57600080fd5b610f9683610e87565b915060208301358015158114610fab57600080fd5b809150509250929050565b60008060408385031215610fc957600080fd5b610fd283610e87565b9150610fe060208401610e87565b90509250929050565b600181811c90821680610ffd57607f821691505b60208210810361101d57634e487b7160e01b600052602260045260246000fd5b50919050565b634e487b7160e01b600052601160045260246000fd5b60008261105657634e487b7160e01b600052601260045260246000fd5b500490565b808201808211156105d9576105d9611023565b818103818111156105d9576105d9611023565b80820281158282048414176105d9576105d961102356fea2646970667358221220a53e85aeec8441665d2533fa5dbc532e25c623585bb086aea9623e7a5412a4ce64736f6c634300081c0033",
  "devdoc": {
    "errors": {
      "ERC20InsufficientAllowance(address,uint256,uint256)": [
        {
          "details": "Indicates a failure with the `spender`s `allowance`. Used in transfers.",
          "params": {
            "allowance": "Amount of tokens a `spender` is allowed to operate with.",
            "needed": "Minimum amount required to perform a transfer.",
            "spender": "Address that may be allowed to operate on tokens without being their owner."
          }
        }
      ],
      "ERC20InsufficientBalance(address,uint256,uint256)": [
        {
          "details": "Indicates an error related to the current `balance` of a `sender`. Used in transfers.",
          "params": {
            "balance": "Current balance for the interacting account.",
            "needed": "Minimum amount required to perform a transfer.",
            "sender": "Address whose tokens are being transferred."
          }
        }
      ],
      "ERC20InvalidApprover(address)": [
        {
          "details": "Indicates a failure with the `approver` of a token to be approved. Used in approvals.",
          "params": {
            "approver": "Address initiating an approval operation."
          }
        }
      ],
      "ERC20InvalidReceiver(address)": [
        {
          "details": "Indicates a failure with the token `receiver`. Used in transfers.",
          "params": {
            "receiver": "Address to which tokens are being transferred."
          }
        }
      ],
      "ERC20InvalidSender(address)": [
        {
          "details": "Indicates a failure with the token `sender`. Used in transfers.",
          "params": {
            "sender": "Address whose tokens are being transferred."
          }
        }
      ],
      "ERC20InvalidSpender(address)": [
        {
          "details": "Indicates a failure with the `spender` to be approved. Used in approvals.",
          "params": {
            "spender": "Address that may be allowed to operate on tokens without being their owner."
          }
        }
      ],
      "OwnableInvalidOwner(address)": [
        {
          "details": "The owner is not a valid owner account. (eg. `address(0)`)"
        }
      ],
      "OwnableUnauthorizedAccount(address)": [
        {
          "details": "The caller account is not authorized to perform an operation."
        }
      ]
    },
    "events": {
      "Approval(address,address,uint256)": {
        "details": "Emitted when the allowance of a `spender` for an `owner` is set by a call to {approve}. `value` is the new allowance."
      },
      "Transfer(address,address,uint256)": {
        "details": "Emitted when `value` tokens are moved from one account (`from`) to another (`to`). Note that `value` may be zero."
      }
    },
    "kind": "dev",
    "methods": {
      "acceptOwnership()": {
        "details": "The new owner accepts the ownership transfer."
      },
      "allowance(address,address)": {
        "details": "See {IERC20-allowance}."
      },
      "approve(address,uint256)": {
        "details": "See {IERC20-approve}. NOTE: If `value` is the maximum `uint256`, the allowance is not updated on `transferFrom`. This is semantically equivalent to an infinite approval. Requirements: - `spender` cannot be the zero address."
      },
      "balanceOf(address)": {
        "details": "See {IERC20-balanceOf}."
      },
      "decimals()": {
        "details": "Returns the number of decimals used to get its user representation. For example, if `decimals` equals `2`, a balance of `505` tokens should be displayed to a user as `5.05` (`505 / 10 ** 2`). Tokens usually opt for a value of 18, imitating the relationship between Ether and Wei. This is the default value returned by this function, unless it's overridden. NOTE: This information is only used for _display_ purposes: it in no way affects any of the arithmetic of the contract, including {IERC20-balanceOf} and {IERC20-transfer}."
      },
      "name()": {
        "details": "Returns the name of the token."
      },
      "owner()": {
        "details": "Returns the address of the current owner."
      },
      "pendingOwner()": {
        "details": "Returns the address of the pending owner."
      },
      "renounceOwnership()": {
        "details": "Leaves the contract without owner. It will not be possible to call `onlyOwner` functions. Can only be called by the current owner. NOTE: Renouncing ownership will leave the contract without an owner, thereby disabling any functionality that is only available to the owner."
      },
      "setFeeFreeList(address,bool)": {
        "params": {
          "account": "Account to add/remove from the fee free list",
          "add": "Add=true, Remove=false"
        }
      },
      "setPoolWithFeeList(address,bool)": {
        "params": {
          "add": "Add=true, Remove=false",
          "pool": "Pool to add/remove from the pool with fee list"
        }
      },
      "symbol()": {
        "details": "Returns the symbol of the token, usually a shorter version of the name."
      },
      "totalSupply()": {
        "details": "See {IERC20-totalSupply}."
      },
      "transferOwnership(address)": {
        "details": "Starts the ownership transfer of the contract to a new account. Replaces the pending transfer if there is one. Can only be called by the current owner. Setting `newOwner` to the zero address is allowed; this can be used to cancel an initiated ownership transfer."
      }
    },
    "version": 1
  },
  "userdoc": {
    "errors": {
      "ZeroAddress()": [
        {
          "notice": "ERRORS"
        }
      ]
    },
    "kind": "user",
    "methods": {
      "PCT_DIV()": {
        "notice": "Divisor for computation (1 bps (basis point) precision: 0.001%)."
      },
      "isFeeFree(address)": {
        "notice": "List of addresses of accounts for which commission is not charged"
      },
      "isPoolWithFee(address)": {
        "notice": "List of addresses of dex pools for which commission is charged"
      },
      "liquidityWallet()": {
        "notice": "CONSTANTS"
      },
      "setFeeFreeList(address,bool)": {
        "notice": "Configure the pay free list"
      },
      "setPoolWithFeeList(address,bool)": {
        "notice": "Configure the pool with fee list"
      },
      "transferFrom(address,address,uint256)": {
        "notice": "------------------ ERC20 ------------------///"
      }
    },
    "version": 1
  },
  "storageLayout": {
    "storage": [
      {
        "astId": 393,
        "contract": "contracts/CINEX.sol:CINEX",
        "label": "_balances",
        "offset": 0,
        "slot": "0",
        "type": "t_mapping(t_address,t_uint256)"
      },
      {
        "astId": 399,
        "contract": "contracts/CINEX.sol:CINEX",
        "label": "_allowances",
        "offset": 0,
        "slot": "1",
        "type": "t_mapping(t_address,t_mapping(t_address,t_uint256))"
      },
      {
        "astId": 401,
        "contract": "contracts/CINEX.sol:CINEX",
        "label": "_totalSupply",
        "offset": 0,
        "slot": "2",
        "type": "t_uint256"
      },
      {
        "astId": 403,
        "contract": "contracts/CINEX.sol:CINEX",
        "label": "_name",
        "offset": 0,
        "slot": "3",
        "type": "t_string_storage"
      },
      {
        "astId": 405,
        "contract": "contracts/CINEX.sol:CINEX",
        "label": "_symbol",
        "offset": 0,
        "slot": "4",
        "type": "t_string_storage"
      },
      {
        "astId": 8,
        "contract": "contracts/CINEX.sol:CINEX",
        "label": "_owner",
        "offset": 0,
        "slot": "5",
        "type": "t_address"
      },
      {
        "astId": 156,
        "contract": "contracts/CINEX.sol:CINEX",
        "label": "_pendingOwner",
        "offset": 0,
        "slot": "6",
        "type": "t_address"
      },
      {
        "astId": 1087,
        "contract": "contracts/CINEX.sol:CINEX",
        "label": "isPoolWithFee",
        "offset": 0,
        "slot": "7",
        "type": "t_mapping(t_address,t_bool)"
      },
      {
        "astId": 1092,
        "contract": "contracts/CINEX.sol:CINEX",
        "label": "isFeeFree",
        "offset": 0,
        "slot": "8",
        "type": "t_mapping(t_address,t_bool)"
      },
      {
        "astId": 1096,
        "contract": "contracts/CINEX.sol:CINEX",
        "label": "_accountToLastSwapTime",
        "offset": 0,
        "slot": "9",
        "type": "t_mapping(t_address,t_uint256)"
      }
    ],
    "types": {
      "t_address": {
        "encoding": "inplace",
        "label": "address",
        "numberOfBytes": "20"
      },
      "t_bool": {
        "encoding": "inplace",
        "label": "bool",
        "numberOfBytes": "1"
      },
      "t_mapping(t_address,t_bool)": {
        "encoding": "mapping",
        "key": "t_address",
        "label": "mapping(address => bool)",
        "numberOfBytes": "32",
        "value": "t_bool"
      },
      "t_mapping(t_address,t_mapping(t_address,t_uint256))": {
        "encoding": "mapping",
        "key": "t_address",
        "label": "mapping(address => mapping(address => uint256))",
        "numberOfBytes": "32",
        "value": "t_mapping(t_address,t_uint256)"
      },
      "t_mapping(t_address,t_uint256)": {
        "encoding": "mapping",
        "key": "t_address",
        "label": "mapping(address => uint256)",
        "numberOfBytes": "32",
        "value": "t_uint256"
      },
      "t_string_storage": {
        "encoding": "bytes",
        "label": "string",
        "numberOfBytes": "32"
      },
      "t_uint256": {
        "encoding": "inplace",
        "label": "uint256",
        "numberOfBytes": "32"
      }
    }
  }
}